:0C03F000013132013000013200012F0009
:06053600E4007F2BDFFE54
:01053C00229C
:1002B1001200061205431204B6E531FB7A007519E6
:1002C100037D017F011204831205361204E9EF70E8
:1002D100061204F6EF60E21205498F3012054C8FC9
:1002E10032E532B4020E74F62531F531D394005063
:1002F10003E4F531E532B4030E740A2531F531C357
:1003010094644003753164E532B412ADE4F5318093
:01031100A843
:03001B0002041AC2
:04041A00C0E0C0D0AE
:10041E00758BA4758DFF052FE52FC394644003756E
:0F042E002F00E52FC395315004D2908002C29069
:05043D00D0D0D0E03238
:0B050300D288C289D2A8D2AFD2B822A1
:1000060053890F438910758BA4758DFFC28FD28ECD
:05001600D2ABD2AF22C5
:1004CA005389F0438901E4F58AF58CC28DC28C22E6
:0B050E00AD07AC068C8CAF058F8A2275
:09052D00AF8CEFFEAD8AEDFF2258
:06053D00EF24FF928C2266
:1003FC0002120000011100010900010800040C00A8
:0D040C00000000020A0000011000011400B1
:060543001204CA020503C8
:0D04E900E5146006E4F5147F01227F002277
:03054900AF0922D5
:03054C00AF0822D3
:0D04F600E5106006E4F5107F01227F002272
:0300030002001EDA
:10001E00C0E0C0F0C083C082C0D075D000C000C0A8
:10002E0001C002C003C004C005C006C007E51170C0
:10003E000CFFFE12050E7F0112053D8049E511648D
:10004E0001704912052D8E128F13E4FFFE12050E5C
:10005E00D3E513940AE512942F4010E513942AE584
:10006E001294325006751102020176D3E51394F004
:10007E00E51294264010E5139410E512942A5006CA
:10008E0075100102016E751101020176E51164020F
:10009E00600302017612052D8E128F13E4FFFE12FD
:1000AE00050ED3E5139478E5129402403DE51394C2
:1000BE0098E51294055033E50BAE0A7803CEC313C0
:1000CE00CE13D8F9240CF8C000E6FFE50B5407FE5A
:1000DE007401A806088002C333D8FCF45FD000F682
:1000EE00050BE50B7054050A8050D3E513948AE591
:1000FE00129406403CE51394AAE51294095032E599
:10010E000BAE0A7803CEC313CE13D8F9240CF8C065
:10011E0000E6FFE50B5407FE7401A806088002C333
:10012E0033D8FC4FD000F6050BE50B700D050A8099
:10013E0009751101750A00750B00C3E50B9420E5D6
:10014E000A94004023750A00750B00E50DF4B50CFA
:10015E000FE50FF4B50E09850C09850E087514010F
:10016E00E4FF12053D751100D007D006D005D0046E
:10017E00D003D002D001D000D0D0D082D083D0F026
:03018E00D0E0328C
:0604DA00C2A58F80D2A72D
:0804E0007F027EEFDEFEDFFC6F
:0104E80022F1
:0A051900C2A61204DAC2A70204E031
:10046500CFCDCFCECCCE1201D07C007D0A1201D0EB
:04047500ED2430FF43
:0A047900D2A61204DAC2A70204E0C2
:1004A000AE07BE0104ED148006BE0209ED243F44F0
:0604B00080FF1205192275
:1004B6007F381205197F0C1205197F061205197F60
:0404C6000102051911
:0A052300AC031204A0AF0402047937
:060442008B338A3489357A
:100448001204A0E4FDAB33AA34A9358D827583006C
:0C045800120191FF60061204790D80E98A
:010464002275
:0C03BD007F0AEA24FFFDE434FFFC7E0010
:0803C9008E1A8F1B8C1C8D1D88
:1003D1007F017E00E4FBEBC3951DE51C6480F8748E
:0E03E1008098500AAC1AAD1B1201BE0B80E8CA
:0103EF0022EB
:040483008A178B1831
:100487001204A0AA19EAD39400400D1203BDAC17B9
:08049700AD181204651A80ED96
:01049F00223A
:100312001204A0C3EA64809480400B7F2B120479FC
:100322008A238B24800E7F2D120479C3E49BF5244B
:10033200E49AF523AA22EAD39400400D1203BDAC3D
:0903420023AD241204651A80EDBC
:01034B00228F
:04034C008A278B2849
:100350001204A0AA29EAD3940040297F101203BFF7
:10036000AC27AD28CFCDCFCECCCE1201D0EF540FDD
:10037000FEC3940AEE5004243080022437FF120496
:04038000791A80D195
:010384002256
:040385008A2C8B2D06
:100389001204A0AA2EEAD394004028EA24FFFDE42F
:1003990034FFFC7F027E001203C9AC2CAD2DCFCDFA
:1003A900CFCECCCE1201D0EF54012430FF12047904
:0303B9001A80D2D5
:0103BC00221E
:03000000020225D4
:0C022500787FE4F6D8FD75813502026C8C
:10019100BB010CE58229F582E5833AF583E0225023
:1001A10006E92582F8E622BBFE06E92582F8E2226D
:0D01B100E58229F582E5833AF583E4932287
:1001BE00EF8DF0A4A8F0CF8CF0A428CE8DF0A42E55
:0201CE00FE220F
:1001D000BC000BBE0029EF8DF084FFADF022E4CC13
:1001E000F875F008EF2FFFEE33FEEC33FCEE9DECDC
:1001F000984005FCEE9DFE0FD5F0E9E4CEFD22ED22
:10020000F8F5F0EE8420D21CFEADF075F008EF2F6B
:10021000FFED33FD4007985006D5F0F222C398FD5C
:050220000FD5F0EA22F9
:100231000202B1E493A3F8E493A34003F68001F230
:1002410008DFF48029E493A3F85407240CC8C333CE
:10025100C4540F4420C8834004F456800146F6DF9D
:10026100E4800B01020408102040809003F0E47E3A
:10027100019360BCA3FF543F30E509541FFEE49392
:10028100A360010ECF54C025E060A840B8E493A359
:10029100FAE493A3F8E493A3C8C582C8CAC583CA84
:1002A100F0A3C8C582C8CAC583CADFE9DEE780BE3C
:0104190000E2
:00000001FF
